{
  "contractName": "VotingContract",
  "abi": [
    {
      "inputs": [],
      "payable": false,
      "stateMutability": "nonpayable",
      "type": "constructor"
    },
    {
      "anonymous": false,
      "inputs": [
        {
          "indexed": true,
          "internalType": "uint256",
          "name": "_candidateId",
          "type": "uint256"
        },
        {
          "indexed": false,
          "internalType": "string",
          "name": "_name",
          "type": "string"
        }
      ],
      "name": "CandidateAdded",
      "type": "event"
    },
    {
      "anonymous": false,
      "inputs": [
        {
          "indexed": true,
          "internalType": "address",
          "name": "_voter",
          "type": "address"
        },
        {
          "indexed": true,
          "internalType": "uint256",
          "name": "_candidateId",
          "type": "uint256"
        }
      ],
      "name": "Voted",
      "type": "event"
    },
    {
      "constant": true,
      "inputs": [
        {
          "internalType": "uint256",
          "name": "",
          "type": "uint256"
        }
      ],
      "name": "candidates",
      "outputs": [
        {
          "internalType": "uint256",
          "name": "id",
          "type": "uint256"
        },
        {
          "internalType": "string",
          "name": "name",
          "type": "string"
        },
        {
          "internalType": "uint256",
          "name": "voteCount",
          "type": "uint256"
        }
      ],
      "payable": false,
      "stateMutability": "view",
      "type": "function"
    },
    {
      "constant": true,
      "inputs": [],
      "name": "candidatesCount",
      "outputs": [
        {
          "internalType": "uint256",
          "name": "",
          "type": "uint256"
        }
      ],
      "payable": false,
      "stateMutability": "view",
      "type": "function"
    },
    {
      "constant": true,
      "inputs": [
        {
          "internalType": "address",
          "name": "",
          "type": "address"
        }
      ],
      "name": "hasVoted",
      "outputs": [
        {
          "internalType": "bool",
          "name": "",
          "type": "bool"
        }
      ],
      "payable": false,
      "stateMutability": "view",
      "type": "function"
    },
    {
      "constant": true,
      "inputs": [],
      "name": "votingEndTime",
      "outputs": [
        {
          "internalType": "uint256",
          "name": "",
          "type": "uint256"
        }
      ],
      "payable": false,
      "stateMutability": "view",
      "type": "function"
    },
    {
      "constant": true,
      "inputs": [],
      "name": "votingStartTime",
      "outputs": [
        {
          "internalType": "uint256",
          "name": "",
          "type": "uint256"
        }
      ],
      "payable": false,
      "stateMutability": "view",
      "type": "function"
    },
    {
      "constant": false,
      "inputs": [
        {
          "internalType": "string",
          "name": "_name",
          "type": "string"
        }
      ],
      "name": "addCandidate",
      "outputs": [],
      "payable": false,
      "stateMutability": "nonpayable",
      "type": "function"
    },
    {
      "constant": false,
      "inputs": [
        {
          "internalType": "uint256",
          "name": "_candidateId",
          "type": "uint256"
        }
      ],
      "name": "vote",
      "outputs": [],
      "payable": false,
      "stateMutability": "nonpayable",
      "type": "function"
    },
    {
      "constant": true,
      "inputs": [],
      "name": "isVotingActive",
      "outputs": [
        {
          "internalType": "bool",
          "name": "",
          "type": "bool"
        }
      ],
      "payable": false,
      "stateMutability": "view",
      "type": "function"
    }
  ],
  "bytecode": "0x608060405234801561001057600080fd5b504260008190556202a3000160015560408051808201909152600b81526a43616e646964617465203160a81b6020820152610053906001600160e01b0361008c16565b60408051808201909152600b81526a21b0b73234b230ba32901960a91b6020820152610087906001600160e01b0361008c16565b610225565b60048054600190810191829055604080516060810182528381526020808201868152600083850181905295865260038252929094208151815591518051919492936100dd939085019291019061018a565b50604082015181600201559050506004547fe83b2a43e7e82d975c8a0a6d2f045153c869e111136a34d1889ab7b598e396a3826040518080602001828103825283818151815260200191508051906020019080838360005b8381101561014d578181015183820152602001610135565b50505050905090810190601f16801561017a5780820380516001836020036101000a031916815260200191505b509250505060405180910390a250565b828054600181600116156101000203166002900490600052602060002090601f016020900481019282601f106101cb57805160ff19168380011785556101f8565b828001600101855582156101f8579182015b828111156101f85782518255916020019190600101906101dd565b50610204929150610208565b5090565b61022291905b80821115610204576000815560010161020e565b90565b610685806102346000396000f3fe608060405234801561001057600080fd5b50600436106100885760003560e01c80632d35a8a21161005b5780632d35a8a2146101085780633477ee2e14610110578063462e91ec146101b357806347cf6f761461025957610088565b80630121b93f1461008d57806309eef43e146100ac5780631ea736e0146100e65780632019a60814610100575b600080fd5b6100aa600480360360208110156100a357600080fd5b5035610261565b005b6100d2600480360360208110156100c257600080fd5b50356001600160a01b03166103cb565b604080519115158252519081900360200190f35b6100ee6103e0565b60408051918252519081900360200190f35b6100ee6103e6565b6100ee6103ec565b61012d6004803603602081101561012657600080fd5b50356103f2565b6040518084815260200180602001838152602001828103825284818151815260200191508051906020019080838360005b8381101561017657818101518382015260200161015e565b50505050905090810190601f1680156101a35780820380516001836020036101000a031916815260200191505b5094505050505060405180910390f35b6100aa600480360360208110156101c957600080fd5b8101906020810181356401000000008111156101e457600080fd5b8201836020820111156101f657600080fd5b8035906020019184600183028401116401000000008311171561021857600080fd5b91908080601f01602080910402602001604051908101604052809392919081815260200183838082843760009201919091525092955061049f945050505050565b6100d261059d565b600054421015801561027557506001544211155b6102be576040805162461bcd60e51b81526020600482015260156024820152742b37ba34b7339034b9903737ba1030b1ba34bb329760591b604482015290519081900360640190fd5b3360009081526002602052604090205460ff1615610314576040805162461bcd60e51b815260206004820152600e60248201526d20b63932b0b23c903b37ba32b21760911b604482015290519081900360640190fd5b60008111801561032657506004548111155b61036c576040805162461bcd60e51b815260206004820152601260248201527124b73b30b634b21031b0b73234b230ba329760711b604482015290519081900360640190fd5b336000818152600260208181526040808420805460ff19166001908117909155868552600390925280842090920180549091019055518392917f4d99b957a2bc29a30ebd96a7be8e68fe50a3c701db28a91436490b7d53870ca491a350565b60026020526000908152604090205460ff1681565b60015481565b60005481565b60045481565b6003602090815260009182526040918290208054600180830180548651600293821615610100026000190190911692909204601f81018690048602830186019096528582529194929390929083018282801561048f5780601f106104645761010080835404028352916020019161048f565b820191906000526020600020905b81548152906001019060200180831161047257829003601f168201915b5050505050908060020154905083565b60048054600190810191829055604080516060810182528381526020808201868152600083850181905295865260038252929094208151815591518051919492936104f093908501929101906105b8565b50604082015181600201559050506004547fe83b2a43e7e82d975c8a0a6d2f045153c869e111136a34d1889ab7b598e396a3826040518080602001828103825283818151815260200191508051906020019080838360005b83811015610560578181015183820152602001610548565b50505050905090810190601f16801561058d5780820380516001836020036101000a031916815260200191505b509250505060405180910390a250565b6000805442101580156105b257506001544211155b90505b90565b828054600181600116156101000203166002900490600052602060002090601f016020900481019282601f106105f957805160ff1916838001178555610626565b82800160010185558215610626579182015b8281111561062657825182559160200191906001019061060b565b50610632929150610636565b5090565b6105b591905b80821115610632576000815560010161063c56fea265627a7a72315820146172ef6a7f6cbf73dc4362405ea26f8257a71ce4e07deeb78dc9efe07630c664736f6c63430005100032",
  "source": "pragma solidity ^0.5.16;\n\ncontract VotingContract {\n    struct Candidate {\n        uint id;\n        string name;\n        uint voteCount;\n    }\n\n    uint public votingStartTime;\n    uint public votingEndTime;\n    mapping(address => bool) public hasVoted;\n    mapping(uint => Candidate) public candidates;\n    uint public candidatesCount;\n\n    event CandidateAdded(uint indexed _candidateId, string _name);\n    event Voted(address indexed _voter, uint indexed _candidateId);\n\n    constructor() public {\n        votingStartTime = now; // 'now' is an alias for block.timestamp\n        votingEndTime = now + 2 days; // Sets the end time to 2 days from now\n        addCandidate(\"Candidate 1\");\n        addCandidate(\"Candidate 2\");\n    }\n\n    function addCandidate(string memory _name) public {\n        candidatesCount++;\n        candidates[candidatesCount] = Candidate(candidatesCount, _name, 0);\n        emit CandidateAdded(candidatesCount, _name);\n    }\n\n    function vote(uint _candidateId) public {\n        require(now >= votingStartTime && now <= votingEndTime, \"Voting is not active.\");\n        require(!hasVoted[msg.sender], \"Already voted.\");\n        require(_candidateId > 0 && _candidateId <= candidatesCount, \"Invalid candidate.\");\n\n        hasVoted[msg.sender] = true;\n        candidates[_candidateId].voteCount++;\n        emit Voted(msg.sender, _candidateId);\n    }\n\n    // Helper function to check if voting is active\n    function isVotingActive() public view returns (bool) {\n        return now >= votingStartTime && now <= votingEndTime;\n    }\n}\n",
  "sourcePath": "/Users/rileythompson/blockchainClass/blockchainproject/contracts/VotingContract.sol",
  "compiler": {
    "name": "solc",
    "version": "0.5.16+commit.9c3226ce.Emscripten.clang"
  },
  "schemaVersion": "3.4.16",
  "updatedAt": "2024-05-01T02:12:24.453Z",
  "networkType": "ethereum",
  "devdoc": {
    "methods": {}
  },
  "userdoc": {
    "methods": {}
  }
}